:100000000C946E050C9496050C9496050C9496052C
:100010000C9496050C9496050C9496050C949605F4
:100020000C9496050C9496050C94A1090C94130A53
:100030000C9496050C9496050C9496050C949605D4
:100040000C9496050C9496050C9496050C949605C4
:100050000C9496050C9496050C9496050C94D40C6F
:100060000C9496050C9496050C9496050C949605A4
:100070000C9496050C9496050C9496050C94960594
:100080000C9496050C9496050C9496050C94960584
:100090000C9496050C9496050C9496050C94960574
:1000A0000C9496050C9496050C949605F0F89C8E8D
:1000B0008783878E9CF8F00000FEFF030303030391
:1000C000070EFCF80000FEFF0303030303070EFC0A
:1000D000F80000FFFF00000000000000FFFF00002C
:1000E000FEFF8383838383C7EE7C380000F8FC0E19
:1000F00007030303070EFCF800003F7FE0C0808089
:10010000C0E07F3FFFFF01010101010101FFFF008E
:1001100000FFFF0C0C0C0C1C3E77E3C100007FFFBE
:10012000C0C0C0C0C0E0703F1F00001F3F70E0C0F3
:10013000C0C0E0703F1F00007FFFC1C1C1C1C1E36B
:10014000773E1C00001F3F70E0C0C0C0E0703F1F42
:10015000000000000001FFFF01000000D5F08D1439
:10016000A1C881CFD9F1AF20000000000002040631
:10017000FE0600000000000000000000001C2255E8
:100180004955221C00000000000000000000008013
:10019000661E060402000000000000001C225549F3
:1001A00055221C0000000000000000000204061E92
:1001B00066800000000000000000000000001C221B
:1001C000554955221C00000000806018040402FA02
:1001D0008989720204041860800106182020405F9B
:1001E00090904F4020201806018060180404C2B28D
:1001F0008989B2C20404186080010618202C43408B
:10020000808040432C201806018040404040404000
:1002100040407E01060830408001020202020202D4
:1002200002027E8060100C02018040300806017ED0
:1002300040404040404040408001020C1060807EC1
:10024000020202020202020201000000000000FE9F
:100250000101FE000000000000040A0A12222243ED
:100260008080432222120A0A04205050484444C28B
:100270000101C24444485050200000000000007FAB
:1002800080807F00000000000000000000000000EF
:1002900000000000000000000000E8F040600800DE
:1002A00010081C22554955221C00000000000000C7
:1002B000000000000000000000000000000000003E
:1002C000000000000000000000000000000000002E
:1002D000000000000000000000000000000000001E
:1002E000000000000000000000000000000000000E
:1002F00000000000000000000000000000000000FE
:1003000000000000000000000000000000000000ED
:1003100000000000000000000000000000000000DD
:1003200000000000000000000000000000000000CD
:1003300000000000000000000000000000000000BD
:1003400000000000000000000000000000000000AD
:10035000000000000000000000000000000000009D
:10036000000000000000000000000000000000008D
:100370000000000000000000000F1911113121E3FE
:100380002226242424242C28380000000000000009
:10039000000000000000000000000000000000005D
:1003A000000000000000000000000000000000004D
:1003B000000000000000000000000000000000003D
:1003C000000000000000000000000000000000002D
:1003D000000000000000000000000000000000001D
:1003E000000000FF0000000000000000000000808E
:1003F00060100808088868E8080808F0800000E035
:1004000000000000000000000000000000000000EC
:1004100000000000000000000000000000000000DC
:1004200000000000000000000000000000000000CC
:1004300000000000000000000000000000000000BC
:10044000000080C02020101FCC38101030E00000C9
:100450000000FF010000E038060302071E7000C024
:100460003F00010F710101010000000000384888C1
:10047000F86800000000000000C0BCE6C2010100F6
:100480007F080C040C00E0D840380000001C38083D
:10049000080C040020221E30E808080804000000B0
:1004A000000000007CC3858404040484FF04040469
:1004B000E43F000000000306040C090808080808CF
:1004C000080C070100000000000000000000000010
:1004D000000000000000000000000000000000001C
:1004E000000000000000000000000000000000000C
:1004F00000000000000000000000000000000000FC
:1005000000000000000000000000000101010303E2
:1005100002020203010000000000000000000000D1
:1005200000000000000000000000000000000000CB
:1005300000000000000000000000000000000000BB
:1005400000000000000000000000000000000000AB
:10055000000000000000000000000000000000009B
:100560000000000000080B00020202010009040064
:100570000001020200000524001001052401010110
:10058000042402060524060001070581031000402B
:1005900009040100020A00000007050202400000F1
:1005A000070583024000000403090412010002EF62
:1005B00002014041233680000101020301417264BF
:1005C00075696E6F204C4C430041726475626F799F
:1005D0000000000000003E5B4F5B3E3E6B4F6B3EF9
:1005E0001C3E7C3E1C183C7E3C181C577D571C1C36
:1005F0005E7F5E1C00183C1800FFE7C3E7FF001891
:10060000241800FFE7DBE7FF30483A060E26297979
:100610002926407F050507407F05253F5A3CE73CDA
:100620005A7F3E1C1C08081C1C3E7F14227F22148B
:100630005F5F005F5F06097F017F006689956A60E2
:100640006060606094A2FFA29408047E04081020F9
:100650007E201008082A1C08081C2A08081E1010F2
:1006600010100C1E0C1E0C30383E3830060E3E0E9C
:1006700006000000000000005F0000000700070007
:10068000147F147F14242A7F2A12231308646236ED
:10069000495620500008070300001C224100004179
:1006A000221C002A1C7F1C2A08083E0808008070B3
:1006B00030000808080808000060600020100804E6
:1006C000023E5149453E00427F4000724949494639
:1006D0002141494D331814127F1027454545393CB7
:1006E0004A494931412111090736494949364649A4
:1006F00049291E00001400000040340000000814C6
:10070000224114141414140041221408020159093E
:10071000063E415D594E7C1211127C7F4949493693
:100720003E414141227F4141413E7F494949417F0C
:10073000090909013E414151737F0808087F0041C2
:100740007F41002040413F017F081422417F40400B
:1007500040407F021C027F7F0408107F3E414141E0
:100760003E7F090909063E4151215E7F091929464C
:10077000264949493203017F01033F4040403F1F62
:100780002040201F3F4038403F6314081463030497
:100790007804036159494D43007F414141020408F7
:1007A0001020004141417F040201020440404040CA
:1007B00040000307080020545478407F2844443800
:1007C0003844444428384444287F3854545418004A
:1007D000087E090218A4A49C787F080404780044C9
:1007E0007D40002040403D007F1028440000417FB4
:1007F00040007C047804787C08040478384444443D
:1008000038FC1824241818242418FC7C0804040834
:10081000485454542404043F44243C4040207C1C4D
:100820002040201C3C4030403C44281028444C9040
:1008300090907C4464544C4400083641000000779A
:100840000000004136080002010204023C26232673
:100850003C1EA1A161123A4040207A3854545559A7
:1008600021555579412154547841215554784020DF
:10087000545579400C1E52721239555555593954F8
:1008800054545939555454580000457C4100024590
:100890007D420001457C40F0292429F0F0282528DC
:1008A000F07C545545002054547C547C0A097F49FF
:1008B00032494949323248484832324A4848303A47
:1008C0004141217A3A42402078009DA0A07D3944E0
:1008D0004444393D4040403D3C24FF2424487E4967
:1008E00043662B2FFC2F2BFF0929F620C0887E0999
:1008F0000320545479410000447D413048484A3235
:10090000384040227A007A0A0A727D0D19317D261C
:1009100029292F28262929292630484D4020380802
:1009200008080808080808382F10C8ACBA2F102883
:1009300034FA00007B000008142A142222142A141E
:10094000089500220095AA005500AAAA55AA55AA02
:10095000000000FF00101010FF00141414FF00101E
:1009600010FF00FF1010F010F0141414FC00141409
:10097000F700FF0000FF00FF1414F404FC14141728
:10098000101F10101F101F1414141F00101010F04F
:10099000000000001F101010101F10101010F01099
:1009A000000000FF101010101010101010FF1000A9
:1009B0000000FF140000FF00FF00001F10170000E0
:1009C000FC04F414141710171414F404F40000FFBA
:1009D00000F714141414141414F700F71414141753
:1009E0001410101F101F141414F4141010F010F031
:1009F00000001F101F0000001F14000000FC140066
:100A000000F010F01010FF10FF141414FF14101059
:100A1000101F00000000F010FFFFFFFFFFF0F0F0DC
:100A2000F0F0FFFFFF0000000000FFFF0F0F0F0FAF
:100A30000F38444438447C2A2A3E147E02020606BB
:100A4000027E027E0263554941633844443C0440BF
:100A50007E201E2006027E020299A5E7A5991C2A87
:100A6000492A1C4C7201724C304A4D4D3030487846
:100A70004830BC625A463D3E494949007E01010169
:100A80007E2A2A2A2A2A44445F444440514A444048
:100A900040444A51400000FF0103E080FF0000088D
:100AA000086B6B083612362436060F090F06000055
:100AB00018180000001010003040FF0101001F0155
:100AC000011E00191D1712003C3C3C3C00000000B8
:100AD00000010204081020408000FA1211241FBEF9
:100AE000CFEFDAE0DEBFCDBF11E0A0E0B1E0E4E798
:100AF000F9E202C005900D92AE37B107D9F726E0B2
:100B0000AEE7B1E001C01D92A135B207E1F715E0F3
:100B1000CEE6D5E004C02197FE010E94AD14CD368B
:100B2000D107C9F70E94320E0C94B8140C9400003F
:100B3000AC014770552721E001C0220F4A95EAF722
:100B400097FD0796FC0183E0F595E7958A95E1F717
:100B5000F695FE2FEE27F795E795E157FE4F83E1D7
:100B6000815021F09081922B9193FACF08952FB765
:100B7000F89483E08093E9009091E800892F8072D7
:100B800095FF04C09091F20080E4891B2FBF089567
:100B9000CF93DF931F92CDB7DEB76983DC01ED9170
:100BA000FC910280F381E02D41E050E0BE016F5FD7
:100BB0007F4F09950F90DF91CF91089583E0809347
:100BC000E9008091F200882319F08AE38093E8001D
:100BD00008950E94B70590E008958F929F92AF927A
:100BE000BF92CF92DF92EF92FF920F931F93CF931A
:100BF000DF935C016B017A0180910C01882309F479
:100C00005BC080918C01882309F456C080918A01D1
:100C100080FF05C08091E00082608093E000E701E2
:100C200010E00AEF83E0882E9AE3992E2097D9F1FD
:100C30000E94B70581110AC0015009F43DC061E06E
:100C400070E080E090E00E949A0CF0CF282F30E016
:100C5000C217D3070CF48C2F4FB7F8948092E90099
:100C60009091E80095FF1DC0282F30E0C21BD30BE8
:100C7000F601982F915020F081918093F100FACFE6
:100C8000C20ED31E112319F09092E80009C0809182
:100C9000E80085FD06C09092E80011E0209709F079
:100CA00010E04FBFC3CF1111C3CF5D9884E680938E
:100CB00089011E141F0444F081E090E0F501938344
:100CC000828380E090E001C0C701DF91CF911F9146
:100CD0000F91FF90EF90DF90CF90BF90AF909F90DB
:100CE0008F900895009769F0FC0101900020E9F7CA
:100CF0003197AF01481B590BBC018DE895E00C946E
:100D0000430C80E090E00895AF92BF92CF92DF92C3
:100D1000EF92FF920F931F93CF93DF931F92CDB764
:100D2000DEB75C0180E4A816B10428F4C50169832C
:100D30000E94980569816501C60ED11CC601019704
:100D40008034910510F40E949805B7FE02C0A12CD2
:100D5000B12C8501760181E4C816D1041CF080E431
:100D6000E82EF12C0E151F054CF441E0B80182E08D
:100D700090E00E942D0D0F5F1F4FECCFAE14BF040B
:100D800054F441E0B50183E190E00E942D0D8FEF16
:100D9000A81AB80AF3CF0F90DF91CF911F910F914E
:100DA000FF90EF90DF90CF90BF90AF9008952F927B
:100DB0003F924F925F926F927F928F929F92AF92EB
:100DC000BF92CF92DF92EF92FF920F931F93CF9338
:100DD000DF93CDB7DEB728970FB6F894DEBF0FBE0E
:100DE000CDBF5A01822E912C9C01280D391D37FD53
:100DF000C4C0803891050CF0C0C09B01200F311D8C
:100E000037FDBBC0603471050CF0B7C0AB0177FF94
:100E100004C044275527461B570B477055279B0195
:100E200077FF02C0295F3F4FE3E035952795EA95AC
:100E3000E1F777FF08C02150310968E070E0DB017D
:100E4000A41BB50BAD01602F66956695669570E0A5
:100E5000077011F06F5F7F4FDB01A20FB31FBA83E2
:100E6000A98339017694762C662477946794680E6A
:100E7000791EE12CF12C00E010E02301B0E84B0ECC
:100E8000511C68E070E0DB01A41BB50BBC83AB8395
:100E900069817A812617370709F46FC02830310538
:100EA00009F46BC02F3FBFEF3B070CF45BC0B201EE
:100EB000600F711FDB01A357BE4FBE83AD83D80106
:100EC000A60DB71DA357BE4F6C0160E070E068151A
:100ED00079050CF047C0E0E8CE16D10409F442C011
:100EE000D7FC34C02F3FFFEF3F0709F442C0FB019E
:100EF000EE0DFF1DEA0DFB1DE491042E01C0EE0F67
:100F00000A94EAF73C90E329EC9341155105F1F07E
:100F100027303105D9F0FB01EE0DFF1DEA0DFB1D59
:100F2000E4912E2E312CF1010B8002C0F595E7954E
:100F30000A94E2F7F887EF83ED81FE813080EF813C
:100F4000F885E3291F01ED81FE8120826F5F7F4FCD
:100F5000ED81FE813196FE83ED83FFEFCF1ADF0A2C
:100F60001196B5CF2F5F3F4F00581F4FE80CF91C6B
:100F70008FCF4115510579F6E9CF28960FB6F89431
:100F8000DEBF0FBECDBFDF91CF911F910F91FF90BC
:100F9000EF90DF90CF90BF90AF909F908F907F9019
:100FA0006F905F904F903F902F900895EDE8F1E0A3
:100FB000A0E0B8E000800EBC8111012C1197A0FDCB
:100FC000FDCF0192B9F70DB408958F929F92AF9221
:100FD000BF92CF92DF92EF92FF920F931F93CF9326
:100FE000DF93CDB7DEB7A1970FB6F894DEBF0FBE83
:100FF000CDBF6C01990FEE08FF08F7FE31C0E091FC
:101000008D05F0918E050190F081E02D6DE28DE867
:1010100095E009958C0122273327A9012C193D0958
:101020004E095F0919A2CE0181967C019AE0892EB2
:10103000912CA12CB12CCA01B901A50194010E94E7
:101040007C14605DF70162937F0121153105410534
:10105000510589F7CF010E947206800F911F1DC0B4
:10106000A701960119A28E010F5D1F4F8AE0C82EBD
:10107000D12CE12CF12CCA01B901A70196010E94E3
:101080007C14605DF80162938F01211531054105E3
:10109000510589F7CF010E947206A1960FB6F89408
:1010A000DEBF0FBECDBFDF91CF911F910F91FF909B
:1010B000EF90DF90CF90BF90AF909F908F9008956A
:1010C00080E0EDE8F1E081118FEF002481938193BE
:1010D000819381930394D1F7EDE8F5E0128A118AA8
:1010E000108A17860895FC0180918C01811103C03C
:1010F0008FEF9FEF08959FB7F89482E08093E90007
:101100002091F20030E01216130614F421E030E0D2
:101110002115310559F0289884E680938B01809140
:10112000F10080838091F200882319F09FBFC901EC
:1011300008958BE68093E800F9CF8091EE05811148
:101140000DC082E08093EA0584E08093EB05109265
:10115000ED051092EC0581E08093EE058AEE95E0B6
:101160000895FC018485958597FD0BC09FB7F89481
:1011700082E08093E9008091F2009FBF90E00196A9
:1011800008959FB7F89482E08093E9008091F2007F
:101190009FBF90E0089540914A0650914B062091E0
:1011A00048063091490642175307B4F49091E8007D
:1011B0009570E1F39091E80092FD19C08093F100E1
:1011C00080914A0690914B0601968F739927892B3F
:1011D00019F48EEF8093E80080914A0690914B06B7
:1011E000019690934B0680934A0681E0089580E033
:1011F0000895DF92EF92FF920F931F93CF93DF93A7
:10120000D82E8A017B01E40EF51EEB01CE15DF0519
:1012100071F0D7FE03C0FE01849101C088810E9455
:10122000CB0821968111F2CF8FEF9FEF01C0C8014B
:10123000DF91CF911F910F91FF90EF90DF90089574
:10124000615030F02091F100FC0120830196F8CF2D
:10125000289884E680938B0108950F931F93CF9372
:10126000DF931F92CDB7DEB78C01FC018485958595
:1012700097FF0EC0CE0101960E947308019719F4E2
:10128000298130E002C02FEF3FEFF8013587248736
:10129000F801848595850F90DF91CF911F910F9173
:1012A0000895CF93DF931F92CDB7DEB7FC018485FD
:1012B000958597FD05C02FEF3FEF358724870BC03D
:1012C000CE0101960E947308019719F4898190E07C
:1012D00002C08FEF9FEF0F90DF91CF9108950F9392
:1012E0001F93CF93DF931F92CDB7DEB782E0898340
:1012F00042E450E065E675E080E80E94F9080E944B
:101300009D08DC0112960D911C9113970115110592
:1013100069F0D801ED91FC910280F381E02DBE01CE
:101320006F5F7F4FC801099597FF07C089810F90B4
:10133000DF91CF911F910F910895F80100851185DC
:10134000E5CF1F920F920FB60F9211248F939F93A8
:101350008091E1009091E100937F9093E10083FF01
:101360000FC01092E90091E09093EB001092EC0016
:1013700092E39093ED0010928C0198E09093F0002E
:1013800082FF20C093E09093E9009091F2009923AE
:1013900019F09AE39093E80090918901992339F02C
:1013A00090918901915090938901992389F19091AD
:1013B0008B01992339F090918B01915090938B017F
:1013C000992341F184FF10C08091E2008E7E8160FC
:1013D0008093E2008091E1008F7E8093E100809114
:1013E0008A018E7E806111C080FF16C08091E2006C
:1013F0008E7E80618093E2008091E1008E7E8093FA
:10140000E10080918A018E7E816080938A0104C010
:101410005D9ACDCF289AD6CF9F918F910F900FBE16
:101420000F901F9018951F920F920FB60F921124D4
:10143000CF92DF92EF92FF920F931F932F933F93E0
:101440004F935F936F937F938F939F93AF93BF93CC
:10145000EF93FF93CF93DF93CDB7DEB76C97DEBFEB
:10146000CDBF1092E9008091E80083FFEDC168E0F4
:10147000CE0145960E94200982EF8093E8008D8975
:1014800087FF05C09091E80090FFFCCF03C09EEF5E
:101490009093E800982F907609F0C6C09E892F8916
:1014A000188D91110CC0803829F4809147068093E3
:1014B000F10002C01092F1001092F10048C1422FD9
:1014C00050E0512B913051F4811141C1413051050F
:1014D00009F03DC1809147068D7F0BC0933061F4C8
:1014E000811135C14130510509F031C18091470664
:1014F0008260809347062BC1953041F48091E800CB
:1015000080FFFCCF20682093E30021C1963009F0D2
:101510005FC0EB8CFC8C1092E90010924B0610928D
:101520004A06123091F510924906109248060E9420
:101530006F0999E0BE016F5F7F4FDB01E92F1D92BC
:10154000EA95E9F799831A8391E09E8390EA988758
:101550009AEF998720914A0630914B06275F3F4FBB
:101560003C832B838D831092E90010924B061092DE
:101570004A06F0924906E092480649E050E080E0D1
:101580000E94F9080E946F09E2C0F0924906E092B9
:1015900048060E949D08DC011296ED90FC9013977E
:1015A000E114F10409F4C0C0D701ED91FC9104806D
:1015B000F581E02DBE016B5E7F4FC7010995009755
:1015C00019F00CF0C4C0C7C0F701E084F184E8CF83
:1015D000973009F4C0C0983021F481E08093F10085
:1015E000B6C0993009F0B3C0837009F0B4C0E2E42A
:1015F000F1E081E021E036E39081992361F080936E
:10160000E9002093EB0091919093EC003093ED0072
:101610008F5F873089F78EE78093EA001092EA00A7
:101620008F8980938C0193C08B8D9C8D1092E900E3
:1016300010924B0610924A069093490680934806F2
:10164000898D811156C08E899D89913A59F48132D4
:1016500009F081C047E050E065E071E080E00E9461
:10166000F90875C0913209F076C0833289F4888D0B
:1016700090E0982F88272F89822BA0E0B0E08093FC
:101680000D0190930E01A0930F01B09310015FC064
:10169000803269F48091E80082FFFCCF67E085E04A
:1016A00091E00E9420098BEF8093E80006C082320F
:1016B00009F04DC08F8980930C01809146068823E4
:1016C00019F0EEEFFAE002C0E0E0F8E080910501E9
:1016D00090910601A0910701B0910801803B9440D0
:1016E000A105B10509F07BC080910C0180FF93C07A
:1016F00076C00E949D08DC0112960D911C911397F3
:101700000115110541F1D801ED91FC910190F08195
:10171000E02DBE016B5E7F4FC8010995811117C096
:10172000F80100851185ECCF113009F44EC013305B
:1017300091F48F89882309F445C0823081F440E810
:1017400067E089EC95E00E945613882321F08EEF24
:101750008093E80079C081E28093EB0075C081300E
:1017600029F440E86BE08DEB95E0EDCF833099F7FD
:101770000E949D08DC011296ED90FC9013978E015B
:101780000F5F1F4F6801E114F10479F0D701ED916B
:10179000FC910680F781E02DB801C7010995080F7B
:1017A000111DF701E084F184EECFD8011C92F601FF
:1017B00001900020E9F73197BF016C197D0940E0E5
:1017C000C601C1CF67EA75E002C06BEA75E061153A
:1017D000710509F2FB01449150E080E840CF0FB65B
:1017E000F894A895809160008861809360001092C1
:1017F00060000FBEA895EE3F2AE0F20739F0809115
:10180000FE0A9091FF0A91838083A1CF1092FF0A74
:101810001092FE0A9CCFEE3F8AE0F80731F08081FB
:1018200091819093FF0A8093FE0A87E797E791835F
:1018300080839BE088E10FB6F894A89580936000C0
:101840000FBE9093600083CF6C960FB6F894DEBF06
:101850000FBECDBFDF91CF91FF91EF91BF91AF91BF
:101860009F918F917F916F915F914F913F912F91B8
:101870001F910F91FF90EF90DF90CF900F900FBED0
:101880000F901F901895CF92DF92EF92FF920F93D7
:101890001F93CF93DF936C017A018B01C0E0D0E0FE
:1018A000CE15DF0589F0D8016D918D01D601ED913E
:1018B000FC910190F081E02DC6010995892B11F46E
:1018C0007E0102C02196ECCFC701DF91CF911F911D
:1018D0000F91FF90EF90DF90CF90089508950895B5
:1018E00080E090E008950E94B3143FB7F89480918F
:1018F0004D0690914E06A0914F06B091500626B528
:10190000A89B05C02F3F19F00196A11DB11D3FBF37
:10191000BA2FA92F982F8827820F911DA11DB11DC5
:10192000BC01CD0142E0660F771F881F991F4A95C1
:10193000D1F708958F929F92AF92BF92CF92DF928C
:10194000EF92FF926B017C010E94750C4B015C01D0
:10195000C114D104E104F104F1F00E94750CDC0122
:10196000CB0188199909AA09BB09883E9340A105B2
:10197000B10570F321E0C21AD108E108F10888EE40
:10198000880E83E0981EA11CB11CC114D104E1048F
:10199000F10419F7DDCFFF90EF90DF90CF90BF906B
:1019A000AF909F908F9008951F920F920FB60F9255
:1019B00011242F933F938F939F93AF93BF93809165
:1019C0007E0190917F01A0918001B09181013091C1
:1019D0004C0623E0230F2D3720F40196A11DB11DE5
:1019E00005C026E8230F0296A11DB11D20934C06C9
:1019F00080937E0190937F01A0938001B093810139
:101A000080914D0690914E06A0914F06B0915006E0
:101A10000196A11DB11D80934D0690934E06A09393
:101A20004F06B0935006BF91AF919F918F913F9118
:101A30002F910F900FBE0F901F9018952D9A08951B
:101A4000BC0180E090E00C949A0C8FB18095807F6F
:101A5000669B88601C9B84600895E1EDFAE090E14C
:101A6000969FD001A0781124A80F6770E60FF11D92
:101A70009491A357BE4F442319F08C91982B03C027
:101A800090958C9198239C9308952F923F924F921A
:101A90005F926F927F928F929F92AF92BF92CF92FE
:101AA000DF92EF92FF920F931F93CF93DF93CDB707
:101AB000DEB727970FB6F894DEBF0FBECDBFFC018F
:101AC0006A3069F425898189928938E0239F800DE5
:101AD000911D1124928B818B108A1786A6C06D30C0
:101AE00009F4A3C09F838E83358824892983338991
:101AF0003A8361887288E784F08880E8E816F10408
:101B0000C4F0AE81BF8155962C915597422F50E07D
:101B10001F968D919C915097B6E02B9F800D911D43
:101B20001124EE81FF81908B87872689211167C060
:101B30007CC0F0E46F16710424F7C70125E0329EE3
:101B4000800D911D112418161906DCF6432C512C1A
:101B5000C30138E0339E800D911D1124181619061B
:101B600084F685E0689F800111240F521A4F20E00F
:101B7000F8012490253009F4212C430158E020FC81
:101B800002C0398101C03A8131110BC0F9818A81CB
:101B9000F81307C026945150840C951C5111EFCFB7
:101BA00025C067018C2D8E198315A0F754018A2D4D
:101BB00088198315B8F490E8C916D10478F4A0E424
:101BC000AA16B10458F4432FB501C6012C833B83F8
:101BD0005D830E942D0D5D813B812C81BFEFAB1A8F
:101BE000BB0AE5CFEFEFCE1ADE0ADCCF2F5FE40CA5
:101BF000F51C0F5F1F4F263009F0BACF82CF6AEF76
:101C000064039001659F300D112420583F4F281721
:101C100039075CF4AE81BF81ED91FC911197019081
:101C2000F081E02D6AE0CD01099581E090E02796F2
:101C30000FB6F894DEBF0FBECDBFDF91CF911F91DD
:101C40000F91FF90EF90DF90CF90BF90AF909F905B
:101C50008F907F906F905F904F903F902F9008955E
:101C60000C943414CF93DF93CDB7DEB728970FB61B
:101C7000F894DEBF0FBECDBF789484B5826084BD7A
:101C800084B5816084BD85B5826085BD85B5816080
:101C900085BD80916E00816080936E0010928100FE
:101CA00080918100826080938100809181008160B9
:101CB000809381008091800081608093800080917A
:101CC0009100826080939100809191008160809367
:101CD0009100809190008160809390008091C1007C
:101CE00084608093C1008091C10082608093C100B4
:101CF0008091C10081608093C1008091C3008160A8
:101D00008093C3008091C00082608093C000809166
:101D1000C20081608093C20080917A0084608093C9
:101D20007A0080917A00826080937A0080917A00B4
:101D3000816080937A0080917A00806880937A0035
:101D400010928C011092470610928A018091D70060
:101D500081608093D70080EA8093D80089B5806144
:101D600089BD89B5826089BD09B400FEFDCF61E0FF
:101D700070E080E090E00E949A0C8091D8008F7C07
:101D800080618093D8008091E000807F8093E000A4
:101D90008091E1008E7E8093E1008DE08093E200EF
:101DA000559A209AEEEFFFE7859194918B3F9C4DD9
:101DB00019F481E08093460681EC80937C0085B124
:101DC000806F85B984B1877E84B984B1876E84B908
:101DD0005E9A5F988AB1806D8AB9769A6E9881B35F
:101DE000806F81BB899880B38D7080BB80E58CBD8E
:101DF00081E08DBD85E090E00E94200D5F9A85E036
:101E000090E00E94200D5E985C98ECE5F1E08DE09A
:101E10008E0F94919EBD00000DB407FEFDCF31964C
:101E20008E13F7CF5C9A81E88093640080916500FF
:101E300081608093650080E00E94D6070E94250D96
:101E400087FF24C05C9885EA8EBD00000DB407FEB4
:101E5000FDCF5C9A2E982F982D9880916400806217
:101E60008093640081E083BF889513BEFCCF2D98DA
:101E70000E94250D8478843871F00E94250D8471AC
:101E8000843131F188EC90E00E94200D0E94250DF4
:101E900082FDEDCF3AC00E941E0D88EC90E00E94BA
:101EA000200D2F9882E090E00E9434148F3F29F09B
:101EB0006FEF82E090E00E943C1484EF91E00E947A
:101EC000200D2F9A0E94250D84788438D9F3D5CF20
:101ED0000E941E0D88EC90E00E94200D2E9882E05A
:101EE00090E00E943414882329F060E082E090E0C2
:101EF0000E943C1484EF91E00E94200D2E9A0E94D3
:101F0000250D84718431D9F3BDCF0E941E0D82E06E
:101F100090E00E943414882331F03E9A3F9A81E089
:101F20008093820104C0109282013E983F9881E024
:101F300090E00E94300E82FB112710F981FF44C00F
:101F400011112E9850EFE52EFF24FA940E94250DD2
:101F500086FF04C02E9A2F9A2D9A36C0112331F095
:101F600034E0E316F10411F42E9A2F9881E00E94D8
:101F7000D60700E128E54CEA50E0B70184E190E0A3
:101F80000E94D70680E00E94D6078FE090E00E9472
:101F9000200D4FEFE41AF40A59E1E516F104B1F609
:101FA000112311F02F9A2D9880E991E00E94200DC5
:101FB0000E941E0DE0919105F09192050190F08133
:101FC000E02D81E995E0099582E390E00E94200DE3
:101FD0000E94250D8111F8CF89E1809398058091A9
:101FE00064008E7F8093640080917A008064809387
:101FF0007A0080917A0086FDFCCFE0907800F09026
:1020000079000E94750C6701E12CF12C7601DD242A
:10201000CC246C0D7D1D8E1D9F1D611571058105E4
:10202000910511F00E942B148091640081608093CF
:10203000640026E0422E512C612C712C30E3232EBB
:10204000312C87E0F82E96E2A92EB12C80918701E1
:10205000909188018130910511F18230910509F448
:10206000BBC1892B09F00AC20E94600802E324E682
:1020700049EA52E060E070E080E090E00E94D7061C
:1020800080919605809397050E94250D8093960573
:102090009091970593FD9CC183FF9AC1F7C10E945F
:1020A000600880919605809397050E94250D809386
:1020B00096058FB7F89440917E0150917F01609111
:1020C0008001709181018FBF80919905942F981B99
:1020D000892F90919A05992329F080939B0510925E
:1020E0009A05CCC190919805891748F48F5F89179C
:1020F00008F0C4C181E083BF889513BEBFC181E0F1
:1021000080939A0540939905809194059091950547
:1021100001969093950580939405909103016091A9
:102120000101809100019923A9F070E000E120E114
:1021300049EA51E090E00E94D70630929D05209236
:102140009C05E6E3F0E0F0939F05E0939E0588E4AC
:1021500091E018C09091040170E000E120E1992322
:10216000A1F049E851E090E00E94D70630929D0529
:1021700020929C0526E330E030939F0520939E0536
:102180008EE491E00E94720605C049E651E090E0BD
:102190000E94D70680918301882371F08091850188
:1021A000909186018531910514F0029601C0019647
:1021B000909386018093850164E48FEF9FEF0E94E6
:1021C000840660E182E290E00E94840645E150E0EE
:1021D00050939D0540939C0510929F0510929E057B
:1021E0008091850190918601449724F084E591E0E7
:1021F0000E9472061092840111E080918401811185
:10220000CFC08091A8058823D9F01092A70510921D
:10221000A6050E942614A30192010E944A14DC0123
:10222000CB010196A11DB11D9093AA058093A9052C
:10223000E0918401FE9EF0011124EC55FA4F1482C6
:10224000E0908401CE2CD12CFC9CF001FD9CF00D83
:102250001124EC55FA4F858196818130910539F42E
:102260006281738100E120E149E652E030C08230B2
:10227000910539F46281738100E120E149E452E083
:1022800026C08330910539F46281738100E120E139
:1022900049E252E01CC08430910539F462817381B7
:1022A00000E120E149E052E012C08530910539F4A7
:1022B0006281738100E120E149EE51E008C0069798
:1022C00051F46281738100E120E149EC51E08081A9
:1022D00091810E94D7068091850190918601449753
:1022E00074F0FC9CF001FD9CF00D1124EC55FA4FAC
:1022F000828193818131910514F002960AC0FC9C81
:10230000F001FD9CF00D1124EC55FA4F8281938170
:10231000019693838283FC9CF001FD9CF00D1124B7
:10232000EC55FA4F228133812135310514F0109399
:102330000201FC9CC001FD9C900D1124AC014C5588
:102340005A4F58874F83FA0180809180E5E1F1E090
:10235000DE01119686E001900D928A95E1F74981A0
:102360005A818B819C81FD81EE81B401605F7F4F3A
:10237000461757070CF091C04F0F511D8416950654
:102380000CF08BC0A901405F5F4F841795070CF0DC
:1023900084C08E0F911D281739070CF07EC090C0A5
:1023A00080910201882331F022E030E030938801EF
:1023B0002093870110929D0510929C0510929F0515
:1023C00010929E0580918501909186010E94E507FB
:1023D00080E00E94D60752C080910201882309F450
:1023E0004DC00E94600880919605809397050E94D9
:1023F000250D80939605B0929D05A0929C051092A4
:102400009F0510929E0587E591E00E947206B092AA
:102410009D05A0929C058CE190E090939F05809390
:102420009E0586E791E00E94720680918501909159
:1024300086010E94E5076091010170E08091000132
:1024400000E120E149E852E090E00E94D706809147
:10245000970582FDBDCF8091960582FFB9CF10927E
:102460000201109288011092870110928601109249
:1024700085011092030110920401AACF80E090E040
:10248000892B09F4E3CD0E940000DBCD81E090E0D0
:1024900090938801809387019BCF10928301809154
:1024A0000201882349F0FC9CF001FD9CF00D1124F1
:1024B000EC55FA4F13821282E394E09284019DCE90
:1024C000EF81F88585819681019749F40E94250D59
:1024D00087FF05C010938301EF81F88547C0FC9CFE
:1024E000C001FD9C900D11249C012C553A4F4901CF
:1024F000F90185819681029721F40E94250D84FDC2
:1025000032C0FC9CC001FD9C900D11249C012C55F7
:102510003A4F4901F90185819681039721F40E9480
:10252000250D85FD32C0FC9CC001FD9C900D112441
:102530009C012C553A4F4901F901858196810497F8
:10254000D9F0FC9CC001FD9C900D11249C012C55E0
:102550003A4F4901F901858196810597E9F40E9476
:10256000250D83FF19C010938301F4011483109289
:1025700003011092040193CF0E94250D86FFE1CF45
:10258000109383011093040104C0109383011093EE
:102590000301F401148383CFFC9CC001FD9C900DCA
:1025A00011249C012C553A4F4901F90185819681EE
:1025B000069721F40E94250D82FDD5CF0E94250D9E
:1025C00087FF03C0109302016ACF0E94250D84FD8E
:1025D000F9CF0E94250D85FDF5CF0E94250D86FDC2
:1025E000F1CF0E94250D83FDEDCF0E94250D82FDC8
:1025F000E9CF55CF1092F9051092F80588EE93E0D7
:10260000A0E0B0E08093FA059093FB05A093FC0551
:10261000B093FD058FE191E09093F7058093F60567
:102620008FEF9FEF9093030680930206E4EAF5E0B4
:1026300023E030E091E0318320831382128281E035
:10264000948316821582379645E0EA3EF40799F79F
:102650001092900510928F05109296051092970592
:1026600090E1909398051092950510929405109220
:102670009A0521E331E030938E0520938D052FE3F9
:1026800031E0309392052093910510929D051092B0
:102690009C0510929F0510929E058093A0051092B4
:1026A000A1058093A2051092A3050895CF92DF9211
:1026B000EF92FF920F931F93CF93DF931F92CDB7AB
:1026C000DEB7182F062FE42E862F880F8E5F998392
:1026D0000E94CB0883E00E94CB08F12EC12E998185
:1026E000D92E8C2D8F19801798F4F601E7FE02C0C1
:1026F000849101C080810E94CB08182F80E00E9445
:10270000CB088123FFEFCF1ADF0A8111EACF01C086
:1027100081E00F90DF91CF911F910F91FF90EF908B
:10272000DF90CF9008950F931F93CF93DF938C0189
:1027300081E090E00E94300E80FF32C08AE090E09D
:102740000E94300E9FEF980F9E3F50F522E330E03D
:10275000D80150963C932E931F9728E330E0529671
:102760003C932E935197CBE0D0E0D801ED91FC91B2
:102770000190F081E02D682FC8010995CE010E94DB
:10278000300E2196C131D10581F780E00E94D60735
:1027900088EE93E0DF91CF911F910F910C94200D63
:1027A000DF91CF911F910F91089504970C9493138B
:1027B0008F929F92AF92BF92CF92DF92EF92FF9251
:1027C000CF93DF93EC01688179818A819B816115C8
:1027D00071058105910521F464E279ED8BE597E0BF
:1027E0002DE133EF41E050E00E944A1449015A01C3
:1027F0009B01AC01A7EAB1E40E9469146B017C0162
:10280000ACEEB4EFA50194010E947714DC01CB017A
:102810008C0D9D1DAE1DBF1DB7FF03C00197A10903
:10282000B04888839983AA83BB83BC01CD019F777D
:10283000DF91CF91FF90EF90DF90CF90BF90AF905E
:102840009F908F9008950E94D813089581E191E0A0
:102850000E94D81308956093110170931201809320
:102860001301909314010895F999FECF92BD81BD93
:10287000F89A992780B50895262FF999FECF1FBAA7
:1028800092BD81BD20BD0FB6F894FA9AF99A0FBE99
:1028900001960895052E97FB1EF400940E94611482
:1028A00057FD07D00E947C1407FC03D04EF40C9413
:1028B000611450954095309521953F4F4F4F5F4F94
:1028C000089590958095709561957F4F8F4F9F4F9C
:1028D00008950E949E14A59F900DB49F900DA49FF3
:1028E000800D911D11240895B7FF0C9469140E9466
:1028F0006914821B930B0895A1E21A2EAA1BBB1B1D
:10290000FD010DC0AA1FBB1FEE1FFF1FA217B307BB
:10291000E407F50720F0A21BB30BE40BF50B661FD1
:10292000771F881F991F1A9469F760957095809595
:1029300090959B01AC01BD01CF010895A29FB0010C
:10294000B39FC001A39F700D811D1124911DB29FE3
:10295000700D811D1124911D0895EE0FFF1F05902C
:10296000F491E02D099481E090E0F8940C94B8146F
:04297000F894FFCF09
:102974003A1C00000000E1000000000000FFFFFF1F
:10298400FF0100000002002200121000000000C835
:1029940005ED05E905DE05B10851092D0900000022
:1029A40000450D430C700C6F0C9313FCFF0000D515
:1029B4001300C180810000004E6963652100436FEC
:1029C4006F6C210078320047616D65204F76657227
:1029D4000A205072657373204220746F20636F6EF7
:0E29E40074696E75650053636F72653A20006A
:00000001FF
