:100000000C9472050C949A050C949A050C949A051C
:100010000C949A050C949A050C949A050C949A05E4
:100020000C949A050C949A050C94A5090C94170A43
:100030000C949A050C949A050C949A050C949A05C4
:100040000C949A050C949A050C949A050C949A05B4
:100050000C949A050C949A050C949A050C94D80C5F
:100060000C949A050C949A050C949A050C949A0594
:100070000C949A050C949A050C949A050C949A0584
:100080000C949A050C949A050C949A050C949A0574
:100090000C949A050C949A050C949A050C949A0564
:1000A0000C949A050C949A050C949A05F0F89C8E81
:1000B0008783878E9CF8F00000FEFF030303030391
:1000C000070EFCF80000FEFF0303030303070EFC0A
:1000D000F80000FFFF00000000000000FFFF00002C
:1000E000FEFF8383838383C7EE7C380000F8FC0E19
:1000F00007030303070EFCF800003F7FE0C0808089
:10010000C0E07F3FFFFF01010101010101FFFF008E
:1001100000FFFF0C0C0C0C1C3E77E3C100007FFFBE
:10012000C0C0C0C0C0E0703F1F00001F3F70E0C0F3
:10013000C0C0E0703F1F00007FFFC1C1C1C1C1E36B
:10014000773E1C00001F3F70E0C0C0C0E0703F1F42
:10015000000000000001FFFF01000000D5F08D1439
:10016000A1C881CFD9F1AF20000000000002040631
:10017000FE0600000000000000000000001C2255E8
:100180004955221C00000000000000000000008013
:10019000661E060402000000000000001C225549F3
:1001A00055221C0000000000000000000204061E92
:1001B00066800000000000000000000000001C221B
:1001C000554955221C00000000806018040402FA02
:1001D0008989720204041860800106182020405F9B
:1001E00090904F4020201806018060180404C2B28D
:1001F0008989B2C20404186080010618202C43408B
:10020000808040432C201806018040404040404000
:1002100040407E01060830408001020202020202D4
:1002200002027E8060100C02018040300806017ED0
:1002300040404040404040408001020C1060807EC1
:10024000020202020202020201000000000000FE9F
:100250000101FE000000000000040A0A12222243ED
:100260008080432222120A0A04205050484444C28B
:100270000101C24444485050200000000000007FAB
:1002800080807F00000000000000000000000000EF
:1002900000000000000000000000E8F040600800DE
:1002A00010081C22554955221C00000000000000C7
:1002B000000000000000000000000000000000003E
:1002C000000000000000000000000000000000002E
:1002D000000000000000000000000000000000001E
:1002E000000000000000000000000000000000000E
:1002F00000000000000000000000000000000000FE
:1003000000000000000000000000000000000000ED
:1003100000000000000000000000000000000000DD
:1003200000000000000000000000000000000000CD
:1003300000000000000000000000000000000000BD
:1003400000000000000000000000000000000000AD
:10035000000000000000000000000000000000009D
:10036000000000000000000000000000000000008D
:100370000000000000000000000F1911113121E3FE
:100380002226242424242C28380000000000000009
:10039000000000000000000000000000000000005D
:1003A000000000000000000000000000000000004D
:1003B000000000000000000000000000000000003D
:1003C000000000000000000000000000000000002D
:1003D000000000000000000000000000000000001D
:1003E000000000FF0000000000000000000000808E
:1003F00060100808088868E8080808F0800000E035
:1004000000000000000000000000000000000000EC
:1004100000000000000000000000000000000000DC
:1004200000000000000000000000000000000000CC
:1004300000000000000000000000000000000000BC
:10044000000080C02020101FCC38101030E00000C9
:100450000000FF010000E038060302071E7000C024
:100460003F00010F710101010000000000384888C1
:10047000F86800000000000000C0BCE6C2010100F6
:100480007F080C040C00E0D840380000001C38083D
:10049000080C040020221E30E808080804000000B0
:1004A000000000007CC3858404040484FF04040469
:1004B000E43F000000000306040C090808080808CF
:1004C000080C070100000000000000000000000010
:1004D000000000000000000000000000000000001C
:1004E000000000000000000000000000000000000C
:1004F00000000000000000000000000000000000FC
:1005000000000000000000000000000101010303E2
:1005100002020203010000000000000000000000D1
:1005200000000000000000000000000000000000CB
:1005300000000000000000000000000000000000BB
:1005400000000000000000000000000000000000AB
:10055000000000000000000000000000000000009B
:100560000000000000080B00020202010009040064
:100570000001020200000524001001052401010110
:10058000042402060524060001070581031000402B
:1005900009040100020A00000007050202400000F1
:1005A000070583024000000403090412010002EF62
:1005B00002014041233680000101020301417264BF
:1005C00075696E6F204C4C430041726475696E6FA3
:1005D000204C656F6E6172646F0000000000003E89
:1005E0005B4F5B3E3E6B4F6B3E1C3E7C3E1C183CA3
:1005F0007E3C181C577D571C1C5E7F5E1C00183CFF
:100600001800FFE7C3E7FF0018241800FFE7DBE747
:10061000FF30483A060E2629792926407F0505072E
:10062000407F05253F5A3CE73C5A7F3E1C1C08088A
:100630001C1C3E7F14227F22145F5F005F5F06094F
:100640007F017F006689956A606060606094A2FFA8
:10065000A29408047E040810207E201008082A1C9A
:1006600008081C2A08081E101010100C1E0C1E0C66
:1006700030383E3830060E3E0E0600000000000006
:10068000005F00000007000700147F147F14242A75
:100690007F2A122313086462364956205000080747
:1006A0000300001C2241000041221C002A1C7F1C68
:1006B0002A08083E0808008070300008080808086A
:1006C000000060600020100804023E5149453E00D1
:1006D000427F400072494949462141494D3318142F
:1006E000127F1027454545393C4A4949314121117E
:1006F00009073649494936464949291E0000140070
:100700000000403400000008142241141414141492
:10071000004122140802015909063E415D594E7CF0
:100720001211127C7F494949363E414141227F41A5
:1007300041413E7F494949417F090909013E414103
:1007400051737F0808087F00417F41002040413FEE
:10075000017F081422417F404040407F021C027FFD
:100760007F0408107F3E4141413E7F090909063E52
:100770004151215E7F091929462649494932030121
:100780007F01033F4040403F1F2040201F3F403833
:10079000403F631408146303047804036159494D0E
:1007A00043007F4141410204081020004141417F44
:1007B00004020102044040404040000307080020BA
:1007C000545478407F2844443838444444283844BA
:1007D00044287F385454541800087E090218A4A4F1
:1007E0009C787F0804047800447D40002040403D10
:1007F000007F1028440000417F40007C047804788A
:100800007C080404783844444438FC18242418181C
:10081000242418FC7C080404084854545424040478
:100820003F44243C4040207C1C2040201C3C403065
:10083000403C44281028444C9090907C4464544C94
:1008400044000836410000007700000041360800EF
:1008500002010204023C2623263C1EA1A161123A99
:100860004040207A385454555921555579412154E6
:10087000547841215554784020545579400C1E52EB
:10088000721239555555593954545459395554548F
:10089000580000457C410002457D420001457C40F6
:1008A000F0292429F0F0282528F07C545545002013
:1008B00054547C547C0A097F4932494949323248B0
:1008C000484832324A4848303A4141217A3A424017
:1008D0002078009DA0A07D39444444393D404040EB
:1008E0003D3C24FF2424487E4943662B2FFC2F2BBC
:1008F000FF0929F620C0887E09032054547941005D
:1009000000447D413048484A32384040227A007ADB
:100910000A0A727D0D19317D2629292F28262929B9
:10092000292630484D4020380808080808080808DB
:10093000382F10C8ACBA2F102834FA00007B000002
:1009400008142A142222142A14089500220095AAB9
:10095000005500AAAA55AA55AA000000FF001010D1
:1009600010FF00141414FF001010FF00FF1010F00F
:1009700010F0141414FC001414F700FF0000FF0022
:10098000FF1414F404FC141417101F10101F101F70
:100990001414141F00101010F0000000001F10109D
:1009A00010101F10101010F010000000FF10101099
:1009B000101010101010FF10000000FF140000FFB6
:1009C00000FF00001F10170000FC04F4141417109F
:1009D000171414F404F40000FF00F7141414141492
:1009E0001414F700F7141414171410101F101F1408
:1009F0001414F4141010F010F000001F101F000069
:100A0000001F14000000FC140000F010F01010FF94
:100A100010FF141414FF141010101F00000000F039
:100A200010FFFFFFFFFFF0F0F0F0F0FFFFFF00000E
:100A3000000000FFFF0F0F0F0F0F38444438447CB5
:100A40002A2A3E147E02020606027E027E026355B8
:100A50004941633844443C04407E201E2006027E07
:100A6000020299A5E7A5991C2A492A1C4C72017219
:100A70004C304A4D4D303048784830BC625A463D83
:100A80003E494949007E0101017E2A2A2A2A2A4438
:100A9000445F444440514A444040444A514000006D
:100AA000FF0103E080FF000008086B6B0836123678
:100AB0002436060F090F0600001818000000101059
:100AC000003040FF0101001F01011E00191D171217
:100AD000003C3C3C3C0000000000010204081020E7
:100AE0004080F41211241FBECFEFDAE0DEBFCDBF8D
:100AF00011E0A0E0B1E0E8E6F9E202C005900D9255
:100B0000AE37B107D9F726E0AEE7B1E001C01D92DC
:100B1000A135B207E1F715E0C2E7D5E004C021979F
:100B2000FE010E94A714C137D107C9F70E94340EF5
:100B30000C94B2140C940000AC014770552721E0CE
:100B400001C0220F4A95EAF797FD0796FC0183E062
:100B5000F595E7958A95E1F7F695FE2FEE27F7953F
:100B6000E795E157FE4F83E1815021F09081922B70
:100B70009193FACF08952FB7F89483E08093E9001A
:100B80009091E800892F807295FF04C09091F20047
:100B900080E4891B2FBF0895CF93DF931F92CDB7B9
:100BA000DEB76983DC01ED91FC910280F381E02DD9
:100BB00041E050E0BE016F5F7F4F09950F90DF91DC
:100BC000CF91089583E08093E9008091F20088231B
:100BD00019F08AE38093E80008950E94BB0590E035
:100BE00008958F929F92AF92BF92CF92DF92EF9231
:100BF000FF920F931F93CF93DF935C016B017A01F8
:100C000080910C01882309F45BC080918C018823BA
:100C100009F456C080918A0180FF05C08091E000F0
:100C200082608093E000E70110E00AEF83E0882E05
:100C30009AE3992E2097D9F10E94BB0581110AC031
:100C4000015009F43DC061E070E080E090E00E9456
:100C50009E0CF0CF282F30E0C217D3070CF48C2F56
:100C60004FB7F8948092E9009091E80095FF1DC07D
:100C7000282F30E0C21BD30BF601982F915020F0A3
:100C800081918093F100FACFC20ED31E112319F087
:100C90009092E80009C08091E80085FD06C090921E
:100CA000E80011E0209709F010E04FBFC3CF111109
:100CB000C3CF5D9884E6809389011E141F0444F01D
:100CC00081E090E0F5019383828380E090E001C0B1
:100CD000C701DF91CF911F910F91FF90EF90DF90AF
:100CE000CF90BF90AF909F908F900895009769F03C
:100CF000FC0101900020E9F73197AF01481B590B27
:100D0000BC018DE895E00C94470C80E090E00895DC
:100D1000AF92BF92CF92DF92EF92FF920F931F9309
:100D2000CF93DF931F92CDB7DEB75C0180E4A816A6
:100D3000B10428F4C50169830E949C05698165019D
:100D4000C60ED11CC60101978034910510F40E9493
:100D50009C05B7FE02C0A12CB12C8501760181E46F
:100D6000C816D1041CF080E4E82EF12C0E151F05E6
:100D70004CF441E0B80182E090E00E94310D0F5F39
:100D80001F4FECCFAE14BF0454F441E0B50183E132
:100D900090E00E94310D8FEFA81AB80AF3CF0F90A0
:100DA000DF91CF911F910F91FF90EF90DF90CF9047
:100DB000BF90AF9008952F923F924F925F926F92A3
:100DC0007F928F929F92AF92BF92CF92DF92EF92DB
:100DD000FF920F931F93CF93DF93CDB7DEB7289782
:100DE0000FB6F894DEBF0FBECDBF5A01822E912CF4
:100DF0009C01280D391D37FDC4C0803891050CF0C9
:100E0000C0C09B01200F311D37FDBBC06034710590
:100E10000CF0B7C0AB0177FF04C044275527461B31
:100E2000570B477055279B0177FF02C0295F3F4F43
:100E3000E3E035952795EA95E1F777FF08C0215063
:100E4000310968E070E0DB01A41BB50BAD01602F38
:100E500066956695669570E0077011F06F5F7F4F3D
:100E6000DB01A20FB31FBA83A98339017694762CD4
:100E7000662477946794680E791EE12CF12C00E0CB
:100E800010E02301B0E84B0E511C68E070E0DB017C
:100E9000A41BB50BBC83AB8369817A812617370706
:100EA00009F46FC02830310509F46BC02F3FBFEF44
:100EB0003B070CF45BC0B201600F711FDB01A3574D
:100EC000BE4FBE83AD83D801A60DB71DA357BE4F3D
:100ED0006C0160E070E0681579050CF047C0E0E84F
:100EE000CE16D10409F442C0D7FC34C02F3FFFEF27
:100EF0003F0709F442C0FB01EE0DFF1DEA0DFB1D8B
:100F0000E491042E01C0EE0F0A94EAF73C90E32925
:100F1000EC9341155105F1F027303105D9F0FB0173
:100F2000EE0DFF1DEA0DFB1DE4912E2E312CF1017B
:100F30000B8002C0F595E7950A94E2F7F887EF83F6
:100F4000ED81FE813080EF81F885E3291F01ED817D
:100F5000FE8120826F5F7F4FED81FE813196FE839F
:100F6000ED83FFEFCF1ADF0A1196B5CF2F5F3F4F0A
:100F700000581F4FE80CF91C8FCF4115510579F629
:100F8000E9CF28960FB6F894DEBF0FBECDBFDF9134
:100F9000CF911F910F91FF90EF90DF90CF90BF9076
:100FA000AF909F908F907F906F905F904F903F9009
:100FB0002F900895EDE8F1E0A0E0B8E000800EBCCD
:100FC0008111012C1197A0FDFDCF0192B9F70DB44D
:100FD00008958F929F92AF92BF92CF92DF92EF923D
:100FE000FF920F931F93CF93DF93CDB7DEB7A197F7
:100FF0000FB6F894DEBF0FBECDBF6C01990FEE089F
:10100000FF08F7FE31C0E0918D05F0918E0501904B
:10101000F081E02D6DE28DE895E009958C012227A5
:101020003327A9012C193D094E095F0919A2CE01E8
:1010300081967C019AE0892E912CA12CB12CCA01B9
:10104000B901A50194010E947614605DF7016293D5
:101050007F01211531054105510589F7CF010E9416
:101060007606800F911F1DC0A701960119A28E015F
:101070000F5D1F4F8AE0C82ED12CE12CF12CCA0144
:10108000B901A70196010E947614605DF801629390
:101090008F01211531054105510589F7CF010E94C6
:1010A0007606A1960FB6F894DEBF0FBECDBFDF91D6
:1010B000CF911F910F91FF90EF90DF90CF90BF9055
:1010C000AF909F908F90089580E0EDE8F1E081115E
:1010D0008FEF002481938193819381930394D1F7BF
:1010E000EDE8F5E0128A118A108A17860895FC014E
:1010F00080918C01811103C08FEF9FEF08959FB7FE
:10110000F89482E08093E9002091F20030E012161A
:10111000130614F421E030E02115310559F0289828
:1011200084E680938B018091F10080838091F200AE
:10113000882319F09FBFC90108958BE68093E800CA
:10114000F9CF8091EE0581110DC082E08093EA0510
:1011500084E08093EB051092ED051092EC0581E0A0
:101160008093EE058AEE95E00895FC0184859585CF
:1011700097FD0BC09FB7F89482E08093E9008091BF
:10118000F2009FBF90E0019608959FB7F89482E027
:101190008093E9008091F2009FBF90E00895409114
:1011A0004A0650914B062091480630914906421755
:1011B0005307B4F49091E8009570E1F39091E80042
:1011C00092FD19C08093F10080914A0690914B06E0
:1011D00001968F739927892B19F48EEF8093E8007D
:1011E00080914A0690914B06019690934B0680930E
:1011F0004A0681E0089580E00895DF92EF92FF9221
:101200000F931F93CF93DF93D82E8A017B01E40EB7
:10121000F51EEB01CE15DF0571F0D7FE03C0FE0110
:10122000849101C088810E94CF0821968111F2CF5C
:101230008FEF9FEF01C0C801DF91CF911F910F91F8
:10124000FF90EF90DF900895615030F02091F10011
:10125000FC0120830196F8CF289884E680938B01C7
:101260000895CF93DF931F92CDB7DEB7FC0184853D
:10127000958597FD05C02FEF3FEF358724870BC07D
:10128000CE0101960E947708019719F4898190E0B8
:1012900002C08FEF9FEF0F90DF91CF9108950F93D2
:1012A0001F93CF93DF931F92CDB7DEB78C01FC0164
:1012B0008485958597FF0EC0CE0101960E94770820
:1012C000019719F4298130E002C02FEF3FEFF801B8
:1012D00035872487F801848595850F90DF91CF911C
:1012E0001F910F9108950F931F93CF93DF931F9238
:1012F000CDB7DEB782E0898342E450E065E675E071
:1013000080E80E94FD080E94A108DC0112960D9160
:101310001C9113970115110569F0D801ED91FC910D
:101320000280F381E02DBE016F5F7F4FC8010995F8
:1013300097FF07C089810F90DF91CF911F910F9187
:101340000895F80100851185E5CF1F920F920FB621
:101350000F9211248F939F938091E1009091E1006F
:10136000937F9093E10083FF0FC01092E90091E01A
:101370009093EB001092EC0092E39093ED001092AA
:101380008C0198E09093F00082FF20C093E090934E
:10139000E9009091F200992319F09AE39093E80004
:1013A00090918901992339F09091890191509093FE
:1013B0008901992389F190918B01992339F09091BA
:1013C0008B01915090938B01992341F184FF10C0C0
:1013D0008091E2008E7E81608093E2008091E10046
:1013E0008F7E8093E10080918A018E7E806111C0A2
:1013F00080FF16C08091E2008E7E80618093E200C3
:101400008091E1008E7E8093E10080918A018E7E42
:10141000816080938A0104C05D9ACDCF289AD6CF8F
:101420009F918F910F900FBE0F901F9018951F9254
:101430000F920FB60F921124CF92DF92EF92FF928C
:101440000F931F932F933F934F935F936F937F93CC
:101450008F939F93AF93BF93EF93FF93CF93DF93BC
:10146000CDB7DEB76C97DEBFCDBF1092E90080919B
:10147000E80083FFEDC168E0CE0145960E94240993
:1014800082EF8093E8008D8987FF05C09091E80086
:1014900090FFFCCF03C09EEF9093E800982F9076CA
:1014A00009F0C6C09E892F89188D91110CC0803813
:1014B00029F4809147068093F10002C01092F10058
:1014C0001092F10048C1422F50E0512B913051F45D
:1014D000811141C14130510509F03DC1809147065C
:1014E0008D7F0BC0933061F4811135C141305105BE
:1014F00009F031C1809147068260809347062BC175
:10150000953041F48091E80080FFFCCF2068209363
:10151000E30021C1963009F05FC0EB8CFC8C109287
:10152000E90010924B0610924A06123091F5109283
:101530004906109248060E94730999E0BE016F5F48
:101540007F4FDB01E92F1D92EA95E9F799831A8312
:1015500091E09E8390EA98879AEF998720914A06B6
:1015600030914B06275F3F4F3C832B838D83109236
:10157000E90010924B0610924A06F0924906E0925A
:10158000480649E050E080E00E94FD080E9473098F
:10159000E2C0F0924906E09248060E94A108DC01F0
:1015A0001296ED90FC901397E114F10409F4C0C079
:1015B000D701ED91FC910480F581E02DBE016B5EB9
:1015C0007F4FC7010995009719F00CF0C4C0C7C040
:1015D000F701E084F184E8CF973009F4C0C0983077
:1015E00021F481E08093F100B6C0993009F0B3C0D6
:1015F000837009F0B4C0E2E4F1E081E021E036E379
:101600009081992361F08093E9002093EB00919100
:101610009093EC003093ED008F5F873089F78EE771
:101620008093EA001092EA008F8980938C0193C026
:101630008B8D9C8D1092E90010924B0610924A06F9
:101640009093490680934806898D811156C08E89F2
:101650009D89913A59F4813209F081C047E050E008
:1016600065E071E080E00E94FD0875C0913209F0EC
:1016700076C0833289F4888D90E0982F88272F894F
:10168000822BA0E0B0E080930D0190930E01A09317
:101690000F01B09310015FC0803269F48091E800BF
:1016A00082FFFCCF67E085E091E00E9424098BEF88
:1016B0008093E80006C0823209F04DC08F89809384
:1016C0000C0180914606882319F0EEEFFAE002C083
:1016D000E0E0F8E08091050190910601A0910701FA
:1016E000B0910801803B9440A105B10509F07BC091
:1016F00080910C0180FF93C076C00E94A108DC019C
:1017000012960D911C9113970115110541F1D80105
:10171000ED91FC910190F081E02DBE016B5E7F4F59
:10172000C8010995811117C0F80100851185ECCF1A
:10173000113009F44EC0133091F48F89882309F4D5
:1017400045C0823081F440E860E189EC95E00E9478
:101750005013882321F08EEF8093E80079C081E256
:101760008093EB0075C0813029F440E86BE08DEB8D
:1017700095E0EDCF833099F70E94A108DC01129625
:10178000ED90FC9013978E010F5F1F4F6801E114DD
:10179000F10479F0D701ED91FC910680F781E02DFD
:1017A000B801C7010995080F111DF701E084F18404
:1017B000EECFD8011C92F60101900020E9F7319795
:1017C000BF016C197D0940E0C601C1CF67EA75E031
:1017D00002C06BEA75E06115710509F2FB014491E5
:1017E00050E080E840CF0FB6F894A8958091600053
:1017F000886180936000109260000FBEA895EE3F54
:101800002AE0F20739F08091FE0A9091FF0A918355
:101810008083A1CF1092FF0A1092FE0A9CCFEE3F68
:101820008AE0F80731F0808191819093FF0A8093DC
:10183000FE0A87E797E7918380839BE088E10FB6F4
:10184000F894A895809360000FBE9093600083CFBA
:101850006C960FB6F894DEBF0FBECDBFDF91CF916F
:10186000FF91EF91BF91AF919F918F917F916F9178
:101870005F914F913F912F911F910F91FF90EF90AA
:10188000DF90CF900F900FBE0F901F901895CF92C2
:10189000DF92EF92FF920F931F93CF93DF936C0130
:1018A0007A018B01C0E0D0E0CE15DF0589F0D801C8
:1018B0006D918D01D601ED91FC910190F081E02DAB
:1018C000C6010995892B11F47E0102C02196ECCF47
:1018D000C701DF91CF911F910F91FF90EF90DF90A3
:1018E000CF9008950895089580E090E008950E94B3
:1018F000AD143FB7F89480914D0690914E06A0919B
:101900004F06B091500626B5A89B05C02F3F19F091
:101910000196A11DB11D3FBFBA2FA92F982F88276F
:10192000820F911DA11DB11DBC01CD0142E0660FCA
:10193000771F881F991F4A95D1F708958F929F921C
:10194000AF92BF92CF92DF92EF92FF926B017C0138
:101950000E94790C4B015C01C114D104E104F10433
:10196000F1F00E94790CDC01CB0188199909AA09D0
:10197000BB09883E9340A105B10570F321E0C21A6E
:10198000D108E108F10888EE880E83E0981EA11CBA
:10199000B11CC114D104E104F10419F7DDCFFF90AB
:1019A000EF90DF90CF90BF90AF909F908F90089571
:1019B0001F920F920FB60F9211242F933F938F9384
:1019C0009F93AF93BF9380917E0190917F01A091EF
:1019D0008001B091810130914C0623E0230F2D3717
:1019E00020F40196A11DB11D05C026E8230F029623
:1019F000A11DB11D20934C0680937E0190937F0121
:101A0000A0938001B093810180914D0690914E0684
:101A1000A0914F06B09150060196A11DB11D809373
:101A20004D0690934E06A0934F06B0935006BF917B
:101A3000AF919F918F913F912F910F900FBE0F907B
:101A40001F9018952D9A0895BC0180E090E00C94A9
:101A50009E0C8FB18095807F669B88601C9B846004
:101A60000895EAEDFAE090E1969FD001A078112464
:101A7000A80F6770E60FF11D9491A357BE4F442342
:101A800019F08C91982B03C090958C9198239C937E
:101A900008952F923F924F925F926F927F928F9212
:101AA0009F92AF92BF92CF92DF92EF92FF920F93ED
:101AB0001F93CF93DF93CDB7DEB727970FB6F89478
:101AC000DEBF0FBECDBFFC016A3069F42589818974
:101AD000928938E0239F800D911D1124928B818B78
:101AE000108A1786A6C06D3009F4A3C09F838E8329
:101AF00035882489298333893A8361887288E78409
:101B0000F08880E8E816F104C4F0AE81BF815596F4
:101B10002C915597422F50E01F968D919C91509794
:101B2000B6E02B9F800D911D1124EE81FF81908BDB
:101B300087872689211167C07CC0F0E46F16710485
:101B400024F7C70125E0329E800D911D112418163F
:101B50001906DCF6432C512CC30138E0339E800D6E
:101B6000911D11241816190684F685E0689F8001DE
:101B7000112406521A4F20E0F8012490253009F470
:101B8000212C430158E020FC02C0398101C03A8178
:101B900031110BC0F9818A81F81307C02694515086
:101BA000840C951C5111EFCF25C067018C2D8E1927
:101BB0008315A0F754018A2D88198315B8F490E88D
:101BC000C916D10478F4A0E4AA16B10458F4432F3E
:101BD000B501C6012C833B835D830E94310D5D817D
:101BE0003B812C81BFEFAB1ABB0AE5CFEFEFCE1ADA
:101BF000DE0ADCCF2F5FE40CF51C0F5F1F4F263091
:101C000009F0BACF82CF6AEF64039001659F300D6F
:101C1000112420583F4F281739075CF4AE81BF814B
:101C2000ED91FC9111970190F081E02D6AE0CD01DA
:101C3000099581E090E027960FB6F894DEBF0FBEBD
:101C4000CDBFDF91CF911F910F91FF90EF90DF906B
:101C5000CF90BF90AF909F908F907F906F905F904C
:101C60004F903F902F900895CF93DF93CDB7DEB77D
:101C700028970FB6F894DEBF0FBECDBF789484B519
:101C8000826084BD84B5816084BD85B5826085BD78
:101C900085B5816085BD80916E00816080936E0006
:101CA00010928100809181008260809381008091F8
:101CB00081008160809381008091800081608093A9
:101CC00080008091910082608093910080919100CA
:101CD000816080939100809190008160809390005A
:101CE0008091C10084608093C1008091C1008260B6
:101CF0008093C1008091C10081608093C100809178
:101D0000C30081608093C3008091C0008260809393
:101D1000C0008091C20081608093C20080917A00EF
:101D2000846080937A0080917A00826080937A0048
:101D300080917A00816080937A0080917A00806837
:101D400080937A0010928C011092470610928A01BB
:101D50008091D70081608093D70080EA8093D8007B
:101D600089B5806189BD89B5826089BD09B400FEED
:101D7000FDCF61E070E080E090E00E949E0C8091D9
:101D8000D8008F7C80618093D8008091E000807FB4
:101D90008093E0008091E1008E7E8093E1008DE0F1
:101DA0008093E200559A209AEEEFFFE78591949197
:101DB0008B3F9C4D19F481E08093460681EC809323
:101DC0007C0085B1806F85B984B1877E84B984B188
:101DD000876E84B95E9A5F988AB1806D8AB9769A67
:101DE0006E9881B3806F81BB899880B38D7080BB02
:101DF00080E58CBD81E08DBD85E090E00E94240DE2
:101E00005F9A85E090E00E94240D5E985C98ECE576
:101E1000F1E08DE08E0F94919EBD00000DB407FEA1
:101E2000FDCF31968E13F7CF5C9A81E880936400E2
:101E30008091650081608093650080E00E94DA07F0
:101E40000E94290D87FF24C05C9885EA8EBD0000A2
:101E50000DB407FEFDCF5C9A2E982F982D98809197
:101E6000640080628093640081E083BF889513BE24
:101E7000FCCF2D980E94290D8478843871F00E943F
:101E8000290D8471843131F188EC90E00E94240D99
:101E90000E94290D82FDEDCF3AC00E94220D88ECF0
:101EA00090E00E94240D2F9882E090E00E942E1472
:101EB0008F3F29F06FEF82E090E00E94361484EFAC
:101EC00091E00E94240D2F9A0E94290D8478843875
:101ED000D9F3D5CF0E94220D88EC90E00E94240D0A
:101EE0002E9882E090E00E942E14882329F060E072
:101EF00082E090E00E94361484EF91E00E94240D6D
:101F00002E9A0E94290D84718431D9F3BDCF0E948D
:101F1000220D82E090E00E942E14882331F03E9A38
:101F20003F9A81E08093820104C0109282013E9822
:101F30003F9881E090E00E942E1481FF3FC02E98D0
:101F400050EFE52EFF24FA940E94290D86FF04C06D
:101F50002E9A2F9A2D9A32C034E0E316F10411F430
:101F60002E9A2F9881E00E94DA0700E128E54CEADA
:101F700050E0B70184E190E00E94DB0680E00E941F
:101F8000DA078FE090E00E94240D4FEFE41AF40A84
:101F900059E1E516F104C1F62F9A2D9880E991E0F8
:101FA0000E94240D0E94220DE0919105F09192056E
:101FB0000190F081E02D81E995E0099582E390E0C0
:101FC0000E94240D0E94290D8111F8CF89E1809390
:101FD0009805809164008E7F8093640080917A00E0
:101FE000806480937A0080917A0086FDFCCFE09037
:101FF0007800F09079000E94790C6701E12CF12CB7
:102000007601DD24CC246C0D7D1D8E1D9F1D611578
:1020100071058105910511F00E94251480916400DD
:1020200081608093640026E0422E512C612C712C3B
:1020300030E3232E312C87E0F82E96E2A92EB12C26
:1020400080918701909188018130910511F1823052
:10205000910509F4BBC1892B09F00AC20E946408EA
:1020600002E324E649EA52E060E070E080E090E0BC
:102070000E94DB0680919605809397050E94290DAA
:10208000809396059091970593FD9CC183FF9AC11B
:10209000F7C10E94640880919605809397050E947D
:1020A000290D809396058FB7F89440917E01509149
:1020B0007F0160918001709181018FBF80919905AE
:1020C000942F981B892F90919A05992329F080933A
:1020D0009B0510929A05CCC190919805891748F4F8
:1020E0008F5F891708F0C4C181E083BF889513BE54
:1020F000BFC181E080939A05409399058091940532
:1021000090919505019690939505809394059091F3
:10211000030160910101809100019923A9F070E011
:1021200000E120E149EA51E090E00E94DB063092B4
:102130009D0520929C05E6E3F0E0F0939F05E09377
:102140009E0588E491E018C09091040170E000E1E0
:1021500020E19923A1F049E851E090E00E94DB06DC
:1021600030929D0520929C0526E330E030939F0538
:1021700020939E058EE491E00E94760605C049E614
:1021800051E090E00E94DB0680918301882371F08A
:1021900080918501909186018531910514F0029618
:1021A00001C00196909386018093850164E48FEFCE
:1021B0009FEF0E94880660E182E290E00E9488061C
:1021C00045E150E050939D0540939C0510929F057A
:1021D00010929E058091850190918601449724F08C
:1021E00084E591E00E9476061092840111E08091CE
:1021F00084018111CFC08091A8058823D9F0109265
:10220000A7051092A6050E942014A30192010E9426
:102210004414DC01CB010196A11DB11D9093AA05C8
:102220008093A905E0918401FE9EF0011124EC55F4
:10223000FA4F1482E0908401CE2CD12CFC9CF0014A
:10224000FD9CF00D1124EC55FA4F8581968181306B
:10225000910539F46281738100E120E149E652E0A1
:1022600030C08230910539F46281738100E120E150
:1022700049E452E026C08330910539F462817381CC
:1022800000E120E149E252E01CC08430910539F4BC
:102290006281738100E120E149E052E012C08530A3
:1022A000910539F46281738100E120E149EE51E04A
:1022B00008C0069751F46281738100E120E149EC86
:1022C00051E0808191810E94DB068091850190918F
:1022D0008601449774F0FC9CF001FD9CF00D1124E4
:1022E000EC55FA4F828193818131910514F0029669
:1022F0000AC0FC9CF001FD9CF00D1124EC55FA4F36
:1023000082819381019693838283FC9CF001FD9CE2
:10231000F00D1124EC55FA4F22813381213531051E
:1023200014F010930201FC9CC001FD9C900D11243F
:10233000AC014C555A4F58874F83FA0180809180E9
:10234000E5E1F1E0DE01119686E001900D928A95BB
:10235000E1F749815A818B819C81FD81EE81B40135
:10236000605F7F4F461757070CF0A0C04F0F511DFD
:10237000841695060CF09AC0A901405F5F4F841740
:1023800095070CF093C08E0F911D281739070CF09C
:102390008DC07DC080910201882331F022E030E0C1
:1023A000309388012093870110929D0510929C051F
:1023B00010929F0510929E05809185019091860153
:1023C0000E94E90780E00E94DA0752C08091020172
:1023D000882309F44DC00E9464088091960580937B
:1023E00097050E94290D80939605B0929D05A092B5
:1023F0009C0510929F0510929E0587E591E00E9432
:102400007606B0929D05A0929C058CE190E0909399
:102410009F0580939E0586E791E00E947606809155
:102420008501909186010E94E9076091010170E0A9
:102430008091000100E120E149E852E090E00E9433
:10244000DB068091970582FDBDCF8091960582FFC6
:10245000B9CF109202011092880110928701109258
:102460008601109285011092030110920401AACFF7
:1024700080E090E0892B09F4E3CD0E940000DBCDE1
:1024800081E090E090938801809387019BCFEF815A
:10249000F885858196810197E1F40E94290D87FFD7
:1024A00018C010938301EF81F8855AC01092830100
:1024B00080910201882349F0FC9CF001FD9CF00D05
:1024C0001124EC55FA4F13821282E394E0928401B6
:1024D0008ECEFC9CC001FD9C900D11249C012C55BE
:1024E0003A4F4901F90185819681029721F40E94B2
:1024F000290D84FD32C0FC9CC001FD9C900D11246F
:102500009C012C553A4F4901F90185819681039729
:1025100069F1FC9CC001FD9C900D11249C012C557F
:102520003A4F4901F90185819681049721F40E946F
:10253000290D86FD24C0FC9CC001FD9C900D11243A
:102540009C012C553A4F4901F901858196810597E7
:10255000E9F40E94290D83FF19C010938301F4014F
:1025600014831092030110920401A2CF0E94290D3E
:1025700085FFCFCF109383011093030104C0109304
:10258000830110930401F401148392CFFC9CC001D9
:10259000FD9C900D11249C012C553A4F4901F901E5
:1025A00085819681069721F40E94290D82FDD5CF61
:1025B0000E94290D87FF03C01093020179CF0E946A
:1025C000290D84FDF9CF0E94290D85FDF5CF0E94CC
:1025D000290D86FDF1CF0E94290D83FDEDCF0E94CC
:1025E000290D82FDE9CF64CF1092F9051092F8050C
:1025F00088EE93E0A0E0B0E08093FA059093FB05AD
:10260000A093FC05B093FD058FE191E09093F70551
:102610008093F6058FEF9FEF909303068093020659
:10262000E4EAF5E023E030E091E031832083138297
:10263000128281E0948316821582379645E0EA3E45
:10264000F40799F71092900510928F051092960555
:102650001092970590E1909398051092950510922D
:10266000940510929A0521E331E030938E05209372
:102670008D052FE331E03093920520939105109260
:102680009D0510929C0510929F0510929E058093C7
:10269000A0051092A1058093A2051092A3050895AC
:1026A000CF92DF92EF92FF920F931F93CF93DF931E
:1026B0001F92CDB7DEB7182F062FE42E862F880F76
:1026C0008E5F99830E94CF0883E00E94CF08F12E8D
:1026D000C12E9981D92E8C2D8F19801798F4F6016F
:1026E000E7FE02C0849101C080810E94CF08182FAC
:1026F00080E00E94CF088123FFEFCF1ADF0A81110B
:10270000EACF01C081E00F90DF91CF911F910F912F
:10271000FF90EF90DF90CF9008950F931F93CF938A
:10272000DF938C0181E090E00E942E1480FF32C084
:102730008AE090E00E942E149FEF980F9E3F50F584
:1027400022E330E0D80150963C932E931F9728E364
:1027500030E052963C932E935197CBE0D0E0D801D5
:10276000ED91FC910190F081E02D682FC801099551
:10277000CE010E942E142196C131D10581F780E04F
:102780000E94DA0788EE93E0DF91CF911F910F91BD
:102790000C94240DDF91CF911F910F910895049710
:1027A0000C948D138F929F92AF92BF92CF92DF9233
:1027B000EF92FF92CF93DF93EC01688179818A8158
:1027C0009B81611571058105910521F464E279ED24
:1027D0008BE597E02DE133EF41E050E00E94441497
:1027E00049015A019B01AC01A7EAB1E40E946314BC
:1027F0006B017C01ACEEB4EFA50194010E94711451
:10280000DC01CB018C0D9D1DAE1DBF1DB7FF03C0AC
:102810000197A109B04888839983AA83BB83BC012F
:10282000CD019F77DF91CF91FF90EF90DF90CF9018
:10283000BF90AF909F908F9008950E94D2130895FB
:1028400081E191E00E94D213089560931101709389
:10285000120180931301909314010895F999FECF0A
:1028600092BD81BDF89A992780B50895262FF999D0
:10287000FECF1FBA92BD81BD20BD0FB6F894FA9A63
:10288000F99A0FBE01960895052E97FB1EF4009449
:102890000E945B1457FD07D00E94761407FC03D0FA
:1028A0004EF40C945B1450954095309521953F4F14
:1028B0004F4F5F4F089590958095709561957F4F2C
:1028C0008F4F9F4F08950E949814A59F900DB49F1D
:1028D000900DA49F800D911D11240895B7FF0C94B5
:1028E00063140E946314821B930B0895A1E21A2EB5
:1028F000AA1BBB1BFD010DC0AA1FBB1FEE1FFF1FA4
:10290000A217B307E407F50720F0A21BB30BE40BF3
:10291000F50B661F771F881F991F1A9469F760953A
:102920007095809590959B01AC01BD01CF010895F4
:10293000A29FB001B39FC001A39F700D811D112400
:10294000911DB29F700D811D1124911D0895EE0FF0
:10295000FF1F0590F491E02D099481E090E0F89438
:082960000C94B214F894FFCFAF
:102968003A1C00000000E1000000000000FFFFFF2B
:10297800FF0100000002002200121000000000CC3D
:1029880005F105ED05E205B50831094F090000001C
:1029980000490D470C740C730C8D13FCFF0000CF1D
:1029A8001300C180810000004E6963652100436FF8
:1029B8006F6C210078320047616D65204F76657233
:1029C8000A205072657373204220746F20636F6E03
:0E29D80074696E75650053636F72653A200076
:2070000055C000006EC000006CC000006AC0000068C0000066C0000064C0000062C0000043
:2070200060C000005EC00000F2C400005AC0000058C0000056C0000054C0000052C00000EE
:2070400050C0000078C000004CC000004AC0000048C0000046C0000044C0000042C00000BE
:2070600040C000003EC000003CC000003AC0000038C0000036C0000034C0000032C0000048
:2070800030C000002EC000002CC000002AC0000028C0000026C0000024C0000022C00000A8
:2070A00020C000001EC000001CC0000011241FBECFEFDAE0DEBFCDBF11E0A0E0B1E0E2E3BC
:2070C000FFE702C005900D92A83AB107D9F711E0A8EAB1E001C01D92AE3BB107E1F78FD30B
:2070E00026C78ECFF89410926F0010928100109285001092840081E085BF15BE47985D9AEB
:20710000289A0C94000008952091B2013091B3012F5F3F4F3093B3012093B201932F37FFA6
:2071200003C08EEF831B982F990F921710F447980895479A08951F920F920FB60F9211246E
:207140002F938F939F93EF93FF9310928500109284008091A8019091A901009741F00197D3
:207160009093A9018093A801892B09F45D9A8091AA019091AB01009741F001979093AB0126
:207180008093AA01892B09F4289AE0E0F0E0859194918F5F9F4F49F08091AC019091AD0151
:2071A00001969093AD018093AC01FF91EF919F918F912F910F900FBE0F901F90189584E0BC
:2071C0008093E9000DC08091E8008B778093E80003C08EB3882351F08091E80082FFF9CFBE
:2071E0008091E80085FFEFCF8091F1000895982F83E08093E9008091E80085FD0DC0809136
:20720000E8008E778093E80003C08EB3882369F08091E80080FFF9CF9093F1005D9884E6CB
:2072200090E09093A9018093A80108954F925F926F927F928F929F92AF92BF92CF92DF921E
:20724000EF92FF920F931F93CF93DF9384E08093E9008091E80082FF57C2289884E690E067
:207260009093AB018093AA01AADF182F853481F48CE49DE19093AD018093AC0107B600FC4B
:20728000FDCFF999FECF81E180935700E89503C0843519F494DF8DE00DC28C34E1F38035F9
:2072A000D1F3843721F484E4A2DF80E003C2813611F489E5FFC18134B1F481DF182F7FDFE3
:2072C00090E0880F991FAA2797FDA095BA2F312F330F20E0442737FD4095542F822B932B68
:2072E000A42BB52BB8C1803711F483E5E3C1833549F4C0E0D1E089917ADF21E0C730D20714
:20730000D1F7D9C1863521F481E371DF80E3D2C1833731F487E86BDF85E969DF8EE1CAC149
:207320008536B9F4E0E0F0E093E085E090935700E89507B600FCFDCF80935700E89507B65D
:2073400000FCFDCFE058FF4FA0E7E030FA0771F7A2CF823739F4E1E0F0E089E08093570024
:207360008491A8C1863439F4E0E0F0E089E08093570084919FC18E3439F4E3E0F0E089E0E5
:2073800080935700849196C1813539F4E2E0F0E089E08093570084918DC1823631F489E521
:2073A00026DF80E024DF80E885C1823419F0873609F0E5C01092AD011092AC0100DF082FE8
:2073C000FEDEF82EFCDE682E8554823008F071C1902F80E0CF2DD0E0C82BD92B10926F00B3
:2073E000173609F04BC081E180935700E895DD24CC24C3943FC0E090AE01F090AF010091CC
:20740000B0011091B101B6E46B16D9F4ED2DF0E0EE29FF29E4918E2FEADEDD2081F082E08D
:2074200090E0A0E0B0E0E80EF91E0A1F1B1FE092AE01F092AF010093B0011093B101DC2470
:2074400018C0D801C701B695A7959795879559D5CEDE82E090E0A0E0B0E0E80EF91E0A1FF2
:207460001B1FE092AE01F092AF010093B0011093B1012197209709F0BECF7DC08090AE01F5
:207480009090AF01A090B001B090B10196E4691609F05DC083E0F40180935700E89507B63E
:2074A00000FCFDCF54C0F6E46F1661F5772031F1E090AE01F090AF010091B0011091B1019E
:2074C0007EDED82ECC24852D90E08C299D29F7010C0140925700E895112482E090E0A0E08B
:2074E000B0E0E80EF91E0A1F1B1FE092AE01F092AF010093B0011093B10102C060DE582E1A
:20750000742423C0E090AE01F090AF010091B0011091B10116950795F794E79450DE682FFA
:20752000C701F7D48091AE019091AF01A091B001B091B1010296A11DB11D8093AE01909349
:20754000AF01A093B001B093B101219704C05524772444244394209709F0A5CF96E46916B6
:2075600041F485E0F40180935700E89507B600FCFDCF8DE03CDE82E080936F009CC0833492
:2075800071F40091AE011091AF0119DE90E021E0F8010C0120935700E89511247CCE8336C8
:2075A00019F5E090AE01F090AF010091B0011091B10105DEF701E16090E021E00C0120938C
:2075C0005700E895112482E090E0A0E0B0E0E80EF91E0A1F1B1FE092AE01F092AF0100936A
:2075E000B0011093B10157CE8D3661F4E091AE01F091AF0185E080935700E89507B600FCF2
:20760000FDCF49CE823551F4E091AE01F091AF0105911491812FEBDD802F4CC0843421F5FE
:20762000E090AE01F090AF010091B0011091B10116950795F794E794C2DD682FC70169D4DE
:207640008091AE019091AF01A091B001B091B1010296A11DB11D8093AE019093AF01A093D8
:20766000B001B093B10117CE843609F5E090AE01F090AF010091B0011091B101D801C70142
:20768000B695A795979587953CD4B1DD82E090E0A0E0B0E0E80EF91E0A1F1B1FE092AE010A
:2076A000F092AF010093B0011093B10104C08B3111F08FE39CDD83E08093E9009091E8002B
:2076C0008091E8008E778093E80095FF04C010C08EB38823C9F08091E80080FFF9CF809193
:2076E000E8008E778093E80003C08EB3882361F08091E80080FFF9CF84E08093E9008091F1
:20770000E8008B778093E800DF91CF911F910F91FF90EF90DF90CF90BF90AF909F908F90AC
:207720007F906F905F904F9008959091B601892F8F77813249F58091B7018032A1F081328A
:2077400019F5913A09F58091E800877F8093E8008DE091E067E070E00BD28091E8008B770B
:207760008093E8000895913279F48091E800877F8093E8008DE091E067E070E05DD2809192
:20778000E8008E778093E800089582E061EC42E0B5D083E061E842E1B1D084E060E842E1EF
:2077A000ADC084B7877F84BF88E10FB6F89480936000109260000FBE20E880E090E00FB63F
:2077C000F89420936100809361000FBE81E085BF92E095BF3F9A209A559AE1E6F0E02083A1
:2077E000108247985D9A289A109289008AEF8093880090936F0083E080938100F0C0409116
:20780000000850910108109201081092000894B714BE88E10FB6F8948093600010926000D5
:207820000FBE292F30E0F901E270F07091FD18C090FF05C0859194918F5F9F4F81F423FFFF
:207840000FC08091090190910A014817590741F0E0E0F0E0859194918F5F9F4F09F042DC64
:20786000A0DF78941092AD011092AC010CC0DEDC36D38091AC019091AD0181549F4110F00D
:207880001092140141DC80911401882381F78091E00081608093E00025DC80E090E0089598
:2078A000FA01923049F0933061F09130F9F485E191E022E130E01EC087E291E02EE330E04D
:2078C00019C0882329F485E691E024E030E012C0813029F489E691E022E230E00BC0823006
:2078E00029F48DE891E028E130E004C080E090E020E030E091838083C90108958093E9004E
:207900008091EB0081608093EB001092ED006093EC004093ED008091EE00881F8827881F62
:2079200008958091B60188238CF403C08EB38823B1F08091E80082FFF9CF8091E8008B772A
:207940008093E80008958EB3882349F08091E80080FFF9CF8091E8008E778093E800089594
:20796000EF92FF920F931F9345D04CD008ED10E0F80180818F77808380818068808380819B
:207980008F7D808319BC1EBA1092B40180EEE82EF12CF70180818B7F8083F8018081816052
:2079A000808380E060E042E0A9DFE1EEF0E080818E7F8083E2EEF0E0808181608083808144
:2079C00088608083F70180818E7F8083F8018081806180831F910F91FF90EF900895E7ED06
:2079E000F0E08081816080838AE482BF81E08093B501B6CFE8EDF0E080818E7F808310921C
:207A0000E20008951092DA001092E10008951F920F920FB60F9211242F933F934F935F93F6
:207A20006F937F938F939F93AF93BF93EF93FF938091DA0080FF1BC08091D80080FF17C0B2
:207A40008091DA008E7F8093DA008091D90080FF0BC080E189BD82E189BD09B400FEFDCF36
:207A600081E08EBB3BD203C019BC1EBA37D28091E10080FF17C08091E20080FF13C0809138
:207A8000E2008E7F8093E2008091E20080618093E2008091D80080628093D80019BC85E049
:207AA0008EBB1CD28091E10084FF2CC08091E20084FF28C080E189BD82E189BD09B400FEC5
:207AC000FDCF8091D8008F7D8093D8008091E1008F7E8093E1008091E2008F7E8093E20012
:207AE0008091E20081608093E2008091B401882331F48091E30087FD02C081E001C084E067
:207B00008EBBECD18091E10083FF21C08091E20083FF1DC08091E100877F8093E10082E06A
:207B20008EBB1092B4018091E1008E7F8093E1008091E2008E7F8093E2008091E2008061E9
:207B40008093E20080E060E042E0D8DEC7D1FF91EF91BF91AF919F918F917F916F915F9130
:207B60004F913F912F910F900FBE0F901F9018959C014091BC015091BD014617570718F49D
:207B8000F90190E044C06115710511F0AB01F8CF8091E8008E778093E80040E050E0F0CF0F
:207BA0008EB3882309F444C0853009F443C08091E80083FF02C081E008958091E80082FD70
:207BC00031C08091E80080FF22C08091F3009091F200782F60E0292F30E0262B372B07C07A
:207BE00081918093F100415050402F5F3F4F4115510519F02830310598F390E02830310566
:207C000009F491E08091E8008E778093E8004115510531F6992321F605C08EB3882341F075
:207C2000853041F08091E80082FFF7CF80E0089582E0089583E008959C016115710529F47C
:207C40008091E8008B778093E800F90126C08EB3882391F1853091F18091E80083FF02C06C
:207C600081E008958091E80082FFF1CF06C08091F10081936150704059F02091F300809191
:207C8000F200322F20E090E0822B932B892B79F78091E8008B778093E80061157105B9F601
:207CA00005C08EB3882341F0853041F08091E80080FFF7CF80E0089582E0089583E00895C2
:207CC0000F931F93DF93CF9300D0CDB7DEB7E6EBF1E08091F100819381E0EE3BF807C9F792
:207CE00024DD8091E80083FFE4C08091B6019091B701953009F46DC0963040F4913081F1A7
:207D0000913070F0933009F0D4C02AC0983009F4A3C0993009F4B2C0963009F0CAC07CC023
:207D2000803809F4C6C0823809F0C3C08091BA0187708093E9008091EB001092E9002091DB
:207D4000E800277F2093E80090E025E0969587952A95E1F781708093F1001092F10087C0D8
:207D6000882319F0823009F0A4C08F71823009F0A0C08091B801882331F52091BA01277097
:207D800009F497C02093E9008091EB0080FF1BC0933021F48091EB00806213C08091EB0018
:207DA00080618093EB0081E090E002C0880F991F2A95E2F78093EA001092EA008091EB00E5
:207DC00088608093EB001092E9008091E800877F51C0882309F06DC01091B8011F770FB79B
:207DE000F8948091E800877F8093E8009ADD8091E80080FFFCCF8091E3008078812B809398
:207E0000E30080688093E300112311F482E001C083E08EBB0FBF4DC08058823008F049C033
:207E20008091B8019091B9016091BA01AE014F5F5F4F36DDBC01009709F43BC08091E8008E
:207E4000877F8093E80089819A8192DE8091E8008B778093E8002DC0803859F58091E800AA
:207E6000877F8093E8008091B4018093F1008091E8008E778093E80054DD1BC08823C9F4CA
:207E80009091B8019230A8F48091E800877F8093E8009093B40145DD8091B401882331F420
:207EA0008091E30087FD02C081E001C084E08EBB6CDC8091E80083FF0AC08091EB0080624E
:207EC0008093EB008091E800877F8093E8000F900F90CF91DF911F910F91089508951F9360
:207EE0008EB3882361F01091E9001092E9008091E80083FF01C0E4DE17701093E9001F916F
:207F00000895F999FECF92BD81BDF89A992780B50895262FF999FECF1FBA92BD81BD20BDBD
:207F20000FB6F894FA9AF99A0FBE01960895F894FFCF4341544552494E4100777700080031
:207F40000000000000080112011001020000084123360001000201000109023E00020100FF
:207F600080320904000001020201000524001001042402040524060001070582030800FF0C
:207F800009040100020A000000070504021000010705830210000104030904220341007216
:207FA000006400750069006E006F0020004C0065006F006E006100720064006F0000001836
:1A7FC00003410072006400750069006E006F0020004C004C004300000000D7
:00000001FF
